:040000004BEF00F0D2
:10000800FACF01F0FBCF02F0E9CF03F0EACF04F01A
:10001800E1CF05F0E2CF06F0D9CF07F0DACF08F04C
:10002800F3CF09F0F4CF0AF0F6CF0BF0F7CF0CF0CE
:10003800F8CF0DF0F5CF0EF0F2BAF2A40BD00B0EFC
:10004800D76EDC0ED66E000E0001916F010E000116
:10005800906FF2940EC0F5FF0DC0F8FF0CC0F7FFCB
:100068000BC0F6FF0AC0F4FF09C0F3FF08C0DAFFAF
:1000780007C0D9FF06C0E2FF05C0E1FF04C0EAFFE0
:1000880003C0E9FF02C0FBFF01C0FAFF11005CEFEB
:0200980009F06D
:100F00000001000A006400E8031027636865636B52
:100F10003A3A25640025642C25640A0D0000000E71
:100F200000018D6F000E00018C6FA00EAC6E800E64
:100F3000AB6EC00EA76E330EAF6E000E946E000E39
:100F40008B6E840ED56EF184F28AF28E0F0E1C6EBB
:100F50000B0E1B6E000E1E6E090E1D6E64EC08F06B
:100F6000000190059111D8A4FBD7000E106E070E5A
:100F70000F6E48EC09F0600E2D6E000E2E6ED890AC
:100F800000018C35D96E00018D35DA6E2D50D926D1
:100F90002E50DA220FC0DEFF10C0DDFF000E106EF3
:100FA000270E0F6E48EC09F0740E2D6E000E2E6E9B
:100FB000D89000018C35D96E00018D35DA6E2D5038
:100FC000D9262E50DA220FC0DEFF10C0DDFF00014F
:100FD0008C510A0A8D11D8A46DD0000E00018F6FBC
:100FE000010E00018E6F00018F51800A800F0A0EE2
:100FF000D8B48E5DD8B02ED0600E2D6E000E2E6E41
:10100000D89000018E35D96E00018F35DA6E2D50E3
:10101000D9262E50DA22DE5000018A27DD50000149
:101020008B23740E2D6E000E2E6ED89000018E351F
:10103000D96E00018F35DA6E2D50D9262E50DA2266
:10104000DE5000018827DD500001892300018E4B0E
:101050008F2BC9D78AC00FF08BC010F0000E126E14
:101060000A0E116EFEEC08F00FC08AF010C08BF073
:101070008AC00FF08BC010F0000E126E0A0E116EB7
:10108000FEEC08F00FC08AF010C08BF00F0E1C6E43
:10109000150E1B6E8AC01DF08BC01EF088C01FF09D
:1010A00089C020F064EC08F0000E00018D6F000E86
:1010B00000018C6F00018C4B8D2B000E0001916F95
:1010C000000E0001906F4CD7000E246E1D0E236E93
:1010D00089D02C50250AD8B404D02C5064EC09F0E7
:1010E00081D0000E256E1BC0F6FF1CC0F7FF1B4A07
:1010F0001C2A0800F5CF2CF02C50000AD8B412009E
:10110000640AD8B403D00D0AD8A46CD023C0D9FF88
:1011100024C0DAFFDECF27F0DDCF28F0020E232631
:10112000000E24222850800AF36E800EF35C000E1D
:10113000D8B4275CD8B006D0030E2512276C281E21
:10114000D8B0282A010E2C6E2C50050AD8B416D01F
:101150002C50020D010EF324F66E0F0EF420F76EE4
:101160000900F5CF21F00900F5CF22F02150275CCE
:1011700022502858D8A002D02C2AE6D725C021F02A
:10118000030E2116D8B403D02D0E64EC09F02CC048
:1011900026F024D02650020D010EF324F66E0F0E19
:1011A000F420F76E0900F5CF11F00A00F5CF12F028
:1011B00027C00FF028C010F0FEEC08F00FC016F0AA
:1011C00010C017F0000E196E0A0E186E27EC09F009
:1011D0001650300F2C6E2C5064EC09F02606262891
:1011E000D8A4D8D71BC0F6FF1CC0F7FF1B4A1C2A87
:1011F0000800F5CF2CF02C666CD71200000E146E90
:10120000000E136E12501110D8B41CD0010E156EC2
:1012100004D0D89011361236152A12AEFAD7D890CB
:101220001336143611500F5C12501058D8A005D048
:1012300011500F5E1250105A1380D8901232113292
:10124000152EEDD713C00FF014C010F01200195076
:101250001810D8B418D0010E1A6E04D0D8901836D1
:1012600019361A2A19AEFAD71850165C19501758A1
:10127000D8A004D01850165E1950175AD8901932B9
:1012800018321A2EF1D716C016F017C017F0120038
:101290000FC0C2FF300EC16E860EC06EC2B2FED746
:1012A000C350C4CF11F0126A11C012F0116A1110AC
:1012B0000F6E1250106E12000001916B906B000EB9
:1012C000F86E00018FEF07F00F6EACA2FED70FC0D3
:0412D000ADFF12005C
:020000040020DA
:08000000FFFFFFFFFFFFFFFF00
:020000040030CA
:0E0000001503797CFF8991FF0FC00FE00F40C0
:00000001FF
